:100000000C94E0000C9408010C9408010C94080175
:100010000C9408010C9408010C9408010C9408013C
:100020000C9408010C9408010C9408010C948A06A5
:100030000C9408010C9408010C9408010C9408011C
:100040000C94C9030C9408010C9403050C94DD0472
:100050000C9408010C9408010C9408010C940801FC
:100060000C9408010C94080100407A10F35A00A087
:10007000724E18090010A5D4E80000E87648170071
:1000800000E40B54020000CA9A3B000000E1F505B1
:10009000000080969800000040420F000000A086FB
:1000A00001000000102700000000E803000000002D
:1000B0006400000000000A000000000001000000D1
:1000C00000002C76D888DC674F0823DFC1DFAE59EB
:1000D000E1B1B796E5E3E453C63AE651997696E87E
:1000E000E6C28426EB898C9B62ED407C6FFCEFBC02
:1000F0009C9F40F2BAA56FA5F490055A2AF75C932D
:100100006B6CF9676DC11BFCE0E40D47FEF520E662
:10011000B500D0ED902E0300943577050080841E45
:10012000080000204E0A000000C80C333333330FA0
:10013000986E12831141EF8D2114893BE65516CF3D
:10014000FEE6DB18D1844B381BF77C1D901DA4BB49
:10015000E424203284725E228100C9F124ECA1E5FE
:100160003D2700000000240027002A0000000000B6
:10017000250028002B000000000023002600290095
:10018000040404040404040402020202020203033D
:100190000303030301020408102040800102040845
:1001A00010200102040810200000000800020100D5
:1001B0000003040700000000000000003E0E710F65
:1001C00011241FBECFEFD8E0DEBFCDBF11E0A0E00D
:1001D000B1E0E2E6FCE202C005900D92AA35B1075B
:1001E000D9F722E0AAE5B1E001C01D92A13AB20719
:1001F000E1F710E0C0EED0E004C02197FE010E94BC
:100200003C11CE3DD107C9F70E941F0F0C942F1649
:100210000C940000833081F028F4813099F0823012
:10022000A9F008958730A9F08830C9F08430B1F47E
:10023000809180008F7D03C0809180008F778093B4
:100240008000089584B58F7784BD089584B58F7D2F
:10025000FBCF8091B0008F778093B000089580919C
:10026000B0008F7DF9CF3FB7F89480912202909132
:100270002302A0912402B091250226B5A89B05C0B7
:100280002F3F19F00196A11DB11D3FBFBA2FA92F15
:10029000982F8827BC01CD01620F711D811D911D12
:1002A00042E0660F771F881F991F4A95D1F708957E
:1002B000AF92BF92CF92DF92EF92FF920F931F9374
:1002C000CF93DF936C017B018B01040F151FEB01B2
:1002D0005E01AE18BF08C017D10759F06991D60169
:1002E000ED91FC910190F081E02DC6010995892BDB
:1002F00079F7C501DF91CF911F910F91FF90EF909A
:10030000DF90CF90BF90AF900895FC01538D448D46
:10031000252F30E0842F90E0821B930B541710F0B0
:10032000CF96089501970895FC01918D828D9817BD
:1003300061F0A28DAE0FBF2FB11D5D968C91928D95
:100340009F5F9F73928F90E008958FEF9FEF0895C6
:10035000FC01918D828D981731F0828DE80FF11D8F
:10036000858D90E008958FEF9FEF0895FC01918DAA
:10037000228D892F90E0805C9F4F821B91098F73A3
:10038000992708958AE591E00E94B60121E0892B22
:1003900009F420E0822F089580E090E0892B29F075
:1003A0000E94C20181110C9400000895FC01A48DEB
:1003B000A80FB92FB11DA35ABF4F2C91848D90E087
:1003C00001968F739927848FA689B7892C93A0896A
:1003D000B1898C91837080648C93938D848D9813F4
:1003E00006C00288F389E02D80818F7D8083089587
:1003F000EF92FF920F931F93CF93DF93EC0181E075
:10040000888F9B8D8C8D98131AC0E889F98980811B
:1004100085FF15C09FB7F894EE89FF896083E8894E
:10042000F98980818370806480839FBF81E090E040
:10043000DF91CF911F910F91FF90EF900895F62ECD
:100440000B8D10E00F5F1F4F0F731127E02E8C8D67
:100450008E110CC00FB607FCFACFE889F9898081AC
:1004600085FFF5CFCE010E94D601F1CFEB8DEC0FC9
:10047000FD2FF11DE35AFF4FF0829FB7F8940B8FC9
:10048000EA89FB8980818062CFCFCF93DF93EC0133
:10049000888D8823B9F0AA89BB89E889F9898C916C
:1004A00085FD03C0808186FD0DC00FB607FCF7CF28
:1004B0008C9185FFF2CF808185FFEDCFCE010E9428
:1004C000D601E9CFDF91CF9108950F931F93CF937A
:1004D000DF93EC0188819981009759F02A813B8153
:1004E0002617370730F081E0DF91CF911F910F91F0
:1004F00008958B016F5F7F4F0E946215009759F03E
:10050000998388831B830A832C813D81232B59F790
:10051000FC011082E8CF80E0E7CFEF92FF920F93CB
:100520001F93CF93DF936115710541F480E0DF9154
:10053000CF911F910F91FF90EF90089541155105B4
:10054000B1F07B01EC010C811D81040F151FB80176
:100550000E946502882351F3288139818C819D8115
:10056000B701820F931F0E9428161D830C8381E020
:10057000DECFCF93DF93EC0188819981009711F052
:100580000E94D914198218821D821C821B821A8231
:10059000DF91CF910895EF92FF920F931F93CF9326
:1005A000DF93EC017B018A01BA010E94650281118F
:1005B0000BC0CE010E94B902CE01DF91CF911F91F5
:1005C0000F91FF90EF9008951D830C83B7018881F0
:1005D00099810E942816F0CFCF93DF93282F30E027
:1005E000F901E855FE4F8491F901EC56FE4FD49184
:1005F000F901E058FE4FC491CC23A1F081110E9473
:100600000A01EC2FF0E0EE0FFF1FEA58FE4FA59114
:10061000B491EC91ED2381E090E009F480E0DF916A
:10062000CF91089580E090E0FACF1F93CF93DF93AE
:10063000282F30E0F901E855FE4F8491F901EC567E
:10064000FE4FD491F901E058FE4FC491CC23A9F09C
:10065000162F81110E940A01EC2FF0E0EE0FFF1F10
:10066000E459FE4FA591B4918FB7F894EC91111114
:1006700008C0D095DE23DC938FBFDF91CF911F910F
:100680000895DE2BF8CFCF93DF9390E0FC01EC567A
:10069000FE4F249180589E4FFC0184918823C9F01D
:1006A00090E0880F991FFC01EE59FE4FA591B4917F
:1006B000FC01E459FE4FC591D49161110DC09FB763
:1006C000F8948C91209582238C9388812823288309
:1006D0009FBFDF91CF910895623051F49FB7F89496
:1006E0003C91822F809583238C93E8812E2BEFCF32
:1006F0008FB7F894EC912E2B2C938FBFEACF8230DA
:10070000910538F0880F991F880F991F0597019759
:10071000F1F708958F929F92AF92BF92CF92DF929E
:10072000EF92FF926B017C010E9433014B015C014F
:10073000C114D104E104F104B9F00E943301681935
:1007400079098A099B09683E73408105910580F308
:1007500021E0C21AD108E108F10888EE880E83E092
:10076000981EA11CB11CE4CFFF90EF90DF90CF90BA
:10077000BF90AF909F908F9008952FB7F89460919D
:100780001E0270911F0280912002909121022FBFC2
:1007900008951F920F920FB60F9211242F933F933B
:1007A0008F939F93AF93BF9380911E0290911F02EE
:1007B000A0912002B091210230911D0223E0230F6D
:1007C0002D3758F50196A11DB11D20931D02809370
:1007D0001E0290931F02A0932002B09321028091E9
:1007E000220290912302A0912402B0912502019649
:1007F000A11DB11D8093220290932302A093240295
:10080000B0932502BF91AF919F918F913F912F910E
:100810000F900FBE0F901F90189526E8230F029699
:10082000A11DB11DD2CFCF93DF93EC0161157105EE
:1008300039F4CE010E94B902CE01DF91CF91089523
:10084000FB0101900020E9F73197AF01461B570BE0
:100850000E948D02882369F3EFCFCF93DF93EC01E1
:10086000FB0144815581608171810E948D0281115B
:1008700003C0CE010E94B902CE01DF91CF9108954D
:10088000FC0180819181009711F00C94D914089596
:10089000EF92FF920F931F93CF93DF93CDB7DEB705
:1008A000A1970FB6F894DEBF0FBECDBF7C01CB0180
:1008B000BA01F7011182108213821282158214820A
:1008C00042E0420F8E010F5F1F4F0E9442110097BE
:1008D000C9F0FC0101900020E9F73197AF01481BF6
:1008E000590BBC01C7010E94CB02A1960FB6F89428
:1008F000DEBF0FBECDBFDF91CF911F910F91FF9053
:10090000EF900895C7010E94B902EFCFFB01DC010F
:1009100011961C921E9213961C921E921297159677
:100920001C921E9214978617970749F06081718177
:100930006115710521F0448155810C94CB02089515
:10094000FC011182108213821282158214826115B9
:10095000710551F0FB0101900020E9F73197AF01DB
:10096000461B570B0C94CB020895DB0114964D9156
:100970005C9115976D917C91DC01ED91FC91028069
:10098000F381E02D09940F931F93CF93DF93EC0134
:100990000E94B5048C01E881F9810280F381E02D89
:1009A00042E050E067E571E0CE010995800F911FAC
:1009B000DF91CF911F910F9108951F920F920FB663
:1009C0000F9211242F933F934F935F936F937F93D5
:1009D0008F939F93AF93BF93EF93FF938AE591E03B
:1009E0000E94D601FF91EF91BF91AF919F918F919E
:1009F0007F916F915F914F913F912F910F900FBE1B
:100A00000F901F9018951F920F920FB60F921124FE
:100A10002F938F939F93EF93FF93E0916A01F0914F
:100A20006B018081E0917001F091710182FD1BC02A
:100A30009081809173018F5F8F7320917401821771
:100A400041F0E0917301F0E0E65AFE4F958F8093FC
:100A50007301FF91EF919F918F912F910F900FBE96
:100A60000F901F9018958081F4CFCF92DF92EF9274
:100A7000FF921F93CF93DF93EC016A017B01122F4A
:100A8000E889F98982E08083C11481EED806E10407
:100A9000F104A1F060E079E08DE390E0A701960118
:100AA0000E9400142150310941095109569547957A
:100AB00037952795211580E1380798F0E889F9895D
:100AC000108260E874E88EE190E0A70196010E9430
:100AD0000014215031094109510956954795379520
:100AE0002795EC85FD853083EE85FF852083188E64
:100AF000EC89FD891083EA89FB898081806180838C
:100B0000EA89FB89808188608083EA89FB8980810A
:100B100080688083EA89FB8980818F7D8083DF9173
:100B2000CF911F91FF90EF90DF90CF900895CF92DB
:100B3000DF92EF92FF92CF93DF93EC01603282E07D
:100B40007807CCF5653B710514F064EB70E08981A2
:100B500028E830E0281B310987FD3395220F331F29
:100B6000220F331F6901330FEE08FF088A8128E541
:100B700032E0281B310987FD3395220F331F220FE6
:100B8000331F032E000C440B550B2C193D094E0945
:100B90005F09DB0177FF02C0B0E0A0E00E94C11353
:100BA00024EB30E040E050E00E949713C20ED31EC9
:100BB000E41EF51EB601E881EC3070F5298188E865
:100BC00090E0821B910927FD9395880F991F880F4C
:100BD000991F681779077CF02A8188E592E0821BCB
:100BE000910927FD9395880F991F880F991F681702
:100BF00079070CF4CB010297880F991F4FB7F8942F
:100C00002E2F30E0F901EE0FFF1FE20FF31FE75028
:100C1000FE4F928381834FBFDF91CF91FF90EF9082
:100C2000DF90CF9008951F93CF93DF93EC01162FA1
:100C300088818C3008F04EC061E0812F0E94430310
:100C40008881282F30E0F901EE0FFF1FE20FF31F1C
:100C5000E750FE4F1F736081607C612B60831982B7
:100C60001A822CE0622F0E943114829FB00111245D
:100C700030E020E0AB01420F531FFA01EE0FFF1FDF
:100C8000E40FF51FE750FE4F908196FD16C02F5FD1
:100C90003F4F2C30310571F781110FC01092800049
:100CA00082E0809381001092850010928400B19AB6
:100CB00080916F00826080936F00E8818E2F90E0BA
:100CC000FC01EE0FFF1FE80FF91FE750FE4F808178
:100CD000806480838881DF91CF911F910895FC010A
:100CE0009091F8019C3098F481E0890F8093F8018D
:100CF0009083892F90E0FC01EE0FFF1FE80FF91F92
:100D0000E750FE4F88EB9BE09283818308958FEF3D
:100D1000808308951F920F920FB60F9211242F9384
:100D20003F934F935F936F937F938F939F93AF9373
:100D3000BF93CF93DF93EF93FF938091F701C0911F
:100D4000F801D0E087FF24C0109285001092840043
:100D50008091F7018F5F8093F7018091F701082E52
:100D6000000C990B8C179D0724F48091F7018C30AF
:100D7000C4F18091840090918500049680349C4950
:100D800008F47AC08091840090918500049676C022
:100D90008091F701082E000C990B8C179D07C4F663
:100DA000E091F7018E2FEE0F990BFC01EE0FFF1F64
:100DB000E80FF91FE750FE4F808186FFC9CFE09111
:100DC000F7018E2FEE0F990BFC01EE0FFF1FE80FBE
:100DD000F91FE750FE4F808160E08F730E9415037A
:100DE000B7CF2091840030918500E091F7018E2FDC
:100DF000EE0F990BFC01EE0FFF1FE80FF91FE750F4
:100E0000FE4F81819281820F931F9093890080937E
:100E10008800E091F7018E2FEE0F990BFC01EE0F89
:100E2000FF1FE80FF91FE750FE4F808186FF11C0BA
:100E3000E091F7018E2FEE0F990BFC01EE0FFF1FD3
:100E4000E80FF91FE750FE4F808161E08F730E9429
:100E50001503FF91EF91DF91CF91BF91AF919F91DA
:100E60008F917F916F915F914F913F912F910F9053
:100E70000FBE0F901F90189580E49CE99093890015
:100E8000809388008FEF8093F701E3CFCF93DF93B8
:100E900000D0CDB7DEB79A838983F89400000F9015
:100EA0000F90DF91CF910895CF93DF9300D0CDB70E
:100EB000DEB79A838983789400000F900F90DF91BA
:100EC000CF910895CF93DF93CDB7DEB72B970FB6B1
:100ED000F894DEBF0FBECDBF98878F8369874A879E
:100EE0002B878F8198852985FC0125838F819885A3
:100EF0002A85FC0126838985882F90E08C569E4F99
:100F00009A83898389819A81FC0184918B838F8163
:100F100098852B81FC0127838985882F90E0805854
:100F20009E4F9D838C838C819D81FC0184918E8357
:100F30008F8198852E81FC0120872F81388580E85C
:100F40009EE3A0E0B0E0F90185879687A787B08B84
:100F500000002B960FB6F894DEBF0FBECDBFDF9119
:100F6000CF910895CF93DF9300D01F92CDB7DEB716
:100F70009A8389836B8389819A81FC01858162E0F0
:100F80000E9443030E94BD03DC01CB01805D9740BA
:100F9000A109B10929813A81F90181879287A38743
:100FA000B48789819A812B81FC01228B00000F90EC
:100FB0000F900F90DF91CF910895CF92DF92EF9233
:100FC000FF92CF93DF9300D000D000D01F92CDB717
:100FD000DEB79E838D836F8380E090E0A0ECBFE757
:100FE00089839A83AB83BC838D819E816F810E94AC
:100FF0008608882309F477C08D819E81FC01868153
:10100000882F90E08B3091050CF46DC08D309105E8
:101010002CF04597029708F066C037C08D819E81FD
:10102000FC018081882F90E0092E000CAA0BBB0BDD
:10103000BC01CD010E9443106B017C018D819E811A
:10104000FC018181882F90E0092E000CAA0BBB0BBC
:10105000BC01CD010E944310DC01CB012DEC3CEC26
:101060004CEC5DE3BC01CD010E94CF10DC01CB0153
:101070009C01AD01C701B6010E949F0FDC01CB01AD
:1010800089839A83AB83BC832EC08D819E81FC01B2
:101090008081882F90E0382F22278D819E81FC014E
:1010A0008181882F90E0822B932BCC01A0E0B0E0CF
:1010B000BC01CD010E944110DC01CB0189839A83E0
:1010C000AB83BC832DEC3CEC4CEC5DE369817A8115
:1010D0008B819C810E94CF10DC01CB0189839A8394
:1010E000AB83BC83000089819A81AB81BC81BC0148
:1010F000CD0127960FB6F894DEBF0FBECDBFDF91AE
:10110000CF91FF90EF90DF90CF900895AF92BF9274
:10111000CF92DF92FF920F931F93CF93DF93CDB7C0
:10112000DEB7C455D1400FB6F894DEBF0FBECDBFB9
:101130009E012E5A3E4FF90191838083CE018C5A35
:101140009E4FFC0160830E94BD03DC01CB018D83B7
:101150009E83AF83B887CE018C5A9E4FFC0190814D
:1011600081E08927882329F1CE018E5A9E4FFC0108
:1011700080819181FC0181859285A385B4852D8133
:101180003E814F81588559016A01A81AB90ACA0AD5
:10119000DB0AD601C501803D9740A105B10548F4A1
:1011A000CE018E5A9E4FFC0180819181FC01F18815
:1011B00065C2CE018E5A9E4FFC01208131818D8106
:1011C0009E81AF81B885F90181879287A387B48713
:1011D000CE018E5A9E4FFC0180819181FC011482C8
:1011E000CE018E5A9E4FFC0180819181FC012481A9
:1011F000CE018E5A9E4FFC0180819181FC01238398
:10120000CE018E5A9E4FFC0180819181FC01238189
:10121000CE018E5A9E4FFC0180819181FC01228378
:10122000CE018E5A9E4FFC0180819181FC0122816A
:10123000CE018E5A9E4FFC0180819181FC01218359
:10124000CE018E5A9E4FFC0180819181FC0121814B
:10125000CE018E5A9E4FFC0180819181FC0120833A
:10126000CE018E5A9E4FFC0180819181FC018581C7
:1012700062E00E94430361E070E080E090E00E9441
:101280008A03CE018E5A9E4FFC0180819181FC0120
:10129000858161E00E944303CE018E5A9E4FFC017E
:1012A00080819181FC01858160E00E941503CE015F
:1012B0008E5A9E4FFC0180819181FC018681882F8E
:1012C00090E04597029728F48CE494E00E947F0315
:1012D00007C064E170E080E090E00E948A030000B3
:1012E000CE018E5A9E4FFC0180819181FC01858147
:1012F00062E00E944303CE018E5A9E4FFC01808122
:101300009181FC018289882F90E00E947F03CE01A9
:101310008F5A9E4F0E944607CE018E5A9E4FFC0167
:101320008081918160E00E94500BDC01CB0121E0C3
:101330008F3F9F4FAF4FBF4F09F020E0222399F01E
:10134000CE018E5A9E4FFC0180819181FC01118A51
:10135000CE018E5A9E4FFC0180819181FC01F18863
:1013600000E010E075C0CE018E5A9E4FFC018081D6
:10137000918161E00E94500BDC01CB0121E08F3FA5
:101380009F4FAF4FBF4F09F020E0222399F0CE01CD
:101390008E5A9E4FFC0180819181FC01118ACE0101
:1013A0008E5A9E4FFC0180819181FC01F18800E002
:1013B00010E04EC01A82198289819A818035910588
:1013C0000CF044C0CE018E5A9E4FFC018081918169
:1013D00060E00E94500BDC01CB0129813A81220F91
:1013E000331F220F331FAE014F5F5F4F240F351F96
:1013F000205F3F4FF90180839183A283B38389816A
:101400009A818C010F5F1F4FCE018E5A9E4FFC01B7
:101410008081918161E00E94500BDC01CB01980139
:10142000220F331F220F331FAE014F5F5F4F240F78
:10143000351F205F3F4FF90180839183A283B383DF
:1014400089819A8102969A838983B6CF01E010E060
:10145000CE018F5A9E4F0E9454070130110509F0AA
:101460000DC100001C821B828B819C8188970CF02F
:10147000A7C08B819C81880F991F880F991F880FA7
:10148000991F9E012F5F3F4F820F931F4096FC01D3
:1014900080819181A281B38189879A87AB87BC873C
:1014A0008B819C81880F991F0196880F991F880F47
:1014B000991F9E012F5F3F4F820F931F4096FC01A3
:1014C00080819181A281B3818D879E87AF87B88B00
:1014D00089859A85AB85BC858F3F9F4FAF4FBF4FA6
:1014E00049F08D859E85AF85B8898F3F9F4FAF4F5F
:1014F000BF4F89F4CE018E5A9E4FFC0180819181AD
:10150000FC01118ACE018E5A9E4FFC01808191818F
:10151000FC01F188B3C08B819C8199230CF4079660
:101520009595879595958795959587959E012E5AC2
:101530003E4FF90120813181280F391FF9012081A7
:10154000422F440F9E012E5A3E4FF90120813181D6
:10155000820F931FFC0140832D853E854F8558895E
:1015600089859A85AB85BC8582179307A407B50743
:1015700008F58B819C8199230CF4079695958795A6
:1015800095958795959587959E012E5A3E4FF90121
:1015900020813181280F391FF9012081422F4160BC
:1015A0009E012E5A3E4FF90120813181820F931FF7
:1015B000FC0140838B819C8101969C838B8354CF5B
:1015C000CE018E5A9E4FFC0180819181FC01848165
:1015D000282F30E0CE018E5A9E4FFC0180819181F0
:1015E000FC018081482F50E0CE018E5A9E4FFC01B5
:1015F00080819181FC018181882F90E0480F591FE3
:10160000CE018E5A9E4FFC0180819181FC01828126
:10161000882F90E0480F591FCE018E5A9E4FFC0133
:1016200080819181FC018381882F90E0840F951F38
:1016300099272817390791F4CE018E5A9E4FFC0145
:101640008081918121E0FC01218BCE018E5A9E4F39
:10165000FC0180819181FC01F18810C0CE018E5A7D
:101660009E4FFC0180819181FC01118ACE018E5A2E
:101670009E4FFC0180819181FC01F1888F2DCC5A15
:10168000DE4F0FB6F894DEBF0FBECDBFDF91CF9116
:101690001F910F91FF90DF90CF90BF90AF90089572
:1016A000CF93DF93CDB7DEB72A970FB6F894DEBF9E
:1016B0000FBECDBF998788876A871A8219828A856B
:1016C000882329F088859985FC01878101C080E005
:1016D0008B8388859985FC018085882F90E0880F11
:1016E000991F8A589E4F9D838C838C819D81FC011C
:1016F00025913491CF013F832E839D838C838E81EE
:101700009F81FC01208188859985FC018781922F2A
:10171000982381E02B81291709F080E08823F9F0D4
:1017200089819A819C012F5F3F4F3A8329839C01D5
:1017300040E050E088859985FC0185859685A785E0
:10174000B08961E0281739074A075B0708F460E0B1
:10175000662309F4BECF8FEF9FEFDC0105C08981BE
:101760009A81CC01A0E0B0E0BC01CD012A960FB671
:10177000F894DEBF0FBECDBFDF91CF910895CF9318
:10178000DF9300D0CDB7DEB79A83898389819A81B0
:101790000E94D00B00000F900F90DF91CF91089521
:1017A000CF93DF9300D0CDB7DEB79A8389830E94B1
:1017B000BD03DC01CB0129813A81F9018087918742
:1017C000A287B38789819A81FC01148600000F905B
:1017D0000F90DF91CF910895CF93DF9300D000D089
:1017E000CDB7DEB79A8389837C836B8389819A81A5
:1017F0002B813C81B9010E94860400000F900F905C
:101800000F900F90DF91CF910895CF93DF9300D089
:1018100000D0CDB7DEB79A8389837C836B838981BF
:101820009A812B813C81B9010E94A00400000F9095
:101830000F900F900F90DF91CF910895CF93DF938A
:1018400000D0CDB7DEB79A83898389819A810E94BF
:10185000400400000F900F90DF91CF910895EF9218
:10186000FF920F931F93CF93DF93CDB7DEB7A1976E
:101870000FB6F894DEBF0FBECDBF98A38F8F69A3BC
:101880001A8219821C821B828B819C8104970CF026
:1018900051C02F8D38A18B819C810A96880F991F8A
:1018A000820F931FFC018081918160E00E94DD071F
:1018B000DC01CB014F8D58A12B813C81220F331FBE
:1018C000220F331F240F351FF90180839183A283D8
:1018D000B38389819A81092E000CAA0BBB0BBC0132
:1018E000CD010E9443107B018C012F8D38A18B818B
:1018F0009C81880F991F880F991F820F931FFC01ED
:1019000080819181A281B3819C01AD01C801B701A1
:101910000E949F0FDC01CB01BC01CD010E940B1086
:10192000DC01CB019A8389838B819C8101969C8306
:101930008B83AACF89819A8199230CF4039695957C
:10194000879595958795092E000CAA0BBB0BBC01BA
:10195000CD010E944310DC01CB012F8D38A1F9018C
:10196000808B918BA28BB38B89A1882309F46CC0E7
:101970001E821D828D819E810497C4F52F8D38A112
:101980008D819E81880F991F880F991F820F931F49
:10199000FC0180819181A281B381FE01739622E0D6
:1019A000AC01BD01CF010E9448049E012D5E3F4F56
:1019B000CE014996B9010E94EC0BCE01499666E32F
:1019C00071E00E941304BC018AE591E00E94B50415
:1019D000CE0149960E941E0CCE0143960E944004FF
:1019E0008D819E8101969E838D83C4CF8F8D98A11A
:1019F000FC0180899189A289B389FE013D9622E08C
:101A0000AC01BD01CF010E944804CE01079669E3F5
:101A100071E00E94050C9E01235F3F4FCE010796A7
:101A2000B9010E942D0463E471E00E941304BC011B
:101A30008AE591E00E94C304CE0107960E941E0C25
:101A4000CE010D960E9440040000A1960FB6F894B6
:101A5000DEBF0FBECDBFDF91CF911F910F91FF90E1
:101A6000EF900895CF93DF9300D000D000D0CDB792
:101A7000DEB79A8389834B835C836D837E838B81FE
:101A80009C81AD81BE81E981FA8126E0AC01BD0176
:101A9000CF010E943505000026960FB6F894DEBFF0
:101AA0000FBECDBFDF91CF910895CF93DF9300D0CC
:101AB000CDB7DEB79A83898389819A8120E1FC01C1
:101AC000322F11923A95E9F789819A81FC01108AA7
:101AD000118A128A138A00000F900F90DF91CF9124
:101AE0000895CF93DF93CDB7DEB740E052EC61E0CD
:101AF00070E08AE591E00E94320D80E291E00E9460
:101B00004B0E83E291E00E944B0E86E291E00E9430
:101B10004B0E89E291E00E940A0F8CE291E00E9454
:101B2000A60E67E381E592E00E94B20767E384E6D0
:101B300092E00E94B20767E387E792E00E94B20753
:101B400067E38AE892E00E94B20786E091E00E9493
:101B5000BF0B8CE291E090934A028093490286E2A7
:101B600091E0909348028093470286E091E0909341
:101B700046028093450283E191E00E94BF0B89E217
:101B800091E09093500280934F0283E291E0909312
:101B90004E0280934D0283E191E090934C0280933A
:101BA0004B0281E592E090933B0280933A0284E6F7
:101BB00092E090933D0280933C0287E792E09093FD
:101BC0003F0280933E028AE892E090934102809324
:101BD000400280E291E09093430280934202000031
:101BE000DF91CF910895CF93DF93CDB7DEB761E05A
:101BF00086E292E00E942F0C0000DF91CF910895C1
:101C0000CF93DF9300D000D0CDB7DEB79A8389831E
:101C10007C836B8389819A81019741F58B819C81BB
:101C2000019621F586E292E00E94550D82E391E053
:101C30000E946F0626E04BE06EE081E592E00E9494
:101C4000620726E04BE06FE084E692E00E946207C4
:101C500026E04BE060E187E792E00E94620726E021
:101C60004BE061E18AE892E00E94620700000F9079
:101C70000F900F900F90DF91CF910895CF93DF9346
:101C8000CDB7DEB76FEF7FEF81E090E00E94000EEE
:101C9000DF91CF910895CF93DF9300D0CDB7DEB71A
:101CA0009A83898389819A81FC018081918161E095
:101CB0000E94430389819A810E94640E00000F9064
:101CC0000F90DF91CF910895CF93DF9300D0CDB7E0
:101CD000DEB79A83898389819A81FC01928181E0B0
:101CE0008927882349F489819A81FC01128289819C
:101CF0009A810E94820E01C000000F900F90DF9128
:101D0000CF910895CF93DF9300D0CDB7DEB79A83FC
:101D1000898389819A81FC018281882349F08981A4
:101D20009A81FC018081918161E00E94150308C0C5
:101D300089819A81FC018081918160E00E94150374
:101D400000000F900F90DF91CF910895CF93DF9314
:101D500000D0CDB7DEB79A83898389819A819C01AF
:101D60002A5F3F4F89819A81FC0180819181BC016A
:101D7000C9010E94130689819A810E94C50E000044
:101D80000F900F90DF91CF910895CF93DF9300D004
:101D9000CDB7DEB79A83898389819A81FC01118648
:101DA00089819A810E94DA0E00000F900F90DF91D6
:101DB000CF910895CF93DF9300D0CDB7DEB79A834C
:101DC000898389819A81FC018185882379F08981C1
:101DD0009A819C012A5F3F4F89819A81FC0182810F
:101DE0009381BC01C9010E9497050EC089819A8127
:101DF0009C012A5F3F4F89819A81FC0184819581F2
:101E0000BC01C9010E94970500000F900F90DF915F
:101E1000CF910895CF93DF9300D0CDB7DEB79A83EB
:101E2000898389819A81FC018081918160E00E948F
:101E3000430300000F900F90DF91CF9108957894A5
:101E400084B5826084BD84B5816084BD85B58260BF
:101E500085BD85B5816085BD80916E008160809370
:101E60006E001092810080918100826080938100D9
:101E700080918100816080938100809180008160E9
:101E8000809380008091B10084608093B100809144
:101E9000B00081608093B00080917A00846080936C
:101EA0007A0080917A00826080937A0080917A0033
:101EB000816080937A0080917A00806880937A00B4
:101EC0001092C1000E94710DC0E0D0E00E94F30D9D
:101ED0002097E1F30E94C2018823C1F30E94000011
:101EE000F5CFEAE5F1E01382128288EE93E0A0E0FC
:101EF000B0E084839583A683B78389E491E09183DE
:101F0000808385EC90E09587848784EC90E09787C8
:101F1000868780EC90E0918B808B81EC90E0938BB6
:101F2000828B82EC90E0958B848B86EC90E0978B93
:101F3000868B118E128E138E148E08955058BB27E7
:101F4000AA270E94B60F0C9495100E94871038F0B3
:101F50000E948E1020F039F49F3F19F426F40C945F
:101F600084100EF4E095E7FB0C947E10E92F0E949C
:101F7000A61058F3BA17620773078407950720F075
:101F800079F4A6F50C94C8100EF4E0950B2EBA2F38
:101F9000A02D0B01B90190010C01CA01A00111246F
:101FA000FF27591B99F0593F50F4503E68F11A161B
:101FB000F040A22F232F342F4427585FF3CF4695AC
:101FC00037952795A795F0405395C9F77EF41F16CE
:101FD000BA0B620B730B840BBAF09150A1F0FF0F98
:101FE000BB1F661F771F881FC2F70EC0BA0F621F84
:101FF000731F841F48F4879577956795B795F79574
:102000009E3F08F0B0CF9395880F08F09927EE0F08
:102010009795879508950E9412106894B1110C94B9
:10202000C91008950E94AE1088F09F5798F0B92FFC
:102030009927B751B0F0E1F0660F771F881F991FFD
:102040001AF0BA95C9F714C0B13091F00E94C810C7
:10205000B1E008950C94C810672F782F8827B85FD7
:1020600039F0B93FCCF3869577956795B395D9F755
:102070003EF490958095709561957F4F8F4F9F4F5F
:102080000895E89409C097FB3EF49095809570956B
:1020900061957F4F8F4F9F4F9923A9F0F92F96E9B4
:1020A000BB279395F695879577956795B795F11129
:1020B000F8CFFAF4BB0F11F460FF1BC06F5F7F4FC6
:1020C0008F4F9F4F16C0882311F096E911C07723D8
:1020D00021F09EE8872F762F05C0662371F096E8E1
:1020E000862F70E060E02AF09A95660F771F881FB0
:1020F000DAF7880F9695879597F9089597F99F676E
:1021000080E870E060E008959FEF80EC089500247F
:102110000A941616170618060906089500240A944C
:1021200012161306140605060895092E0394000CD2
:1021300011F4882352F0BB0F40F4BF2B11F460FF61
:1021400004C06F5F7F4F8F4F9F4F089557FD90588A
:10215000440F551F59F05F3F71F04795880F97FB6B
:10216000991F61F09F3F79F0879508951216130625
:102170001406551FF2CF4695F1DF08C01616170654
:102180001806991FF1CF8695710561050894089589
:10219000E894BB2766277727CB0197F908950E941B
:1021A000E2100C9495100E94871038F00E948E1057
:1021B00020F0952311F00C947E100C9484101124BF
:1021C0000C94C9100E94A61070F3959FC1F3950F4F
:1021D00050E0551F629FF001729FBB27F00DB11DAB
:1021E000639FAA27F00DB11DAA1F649F6627B00D3B
:1021F000A11D661F829F2227B00DA11D621F739F24
:10220000B00DA11D621F839FA00D611D221F749F31
:102210003327A00D611D231F849F600D211D822F78
:10222000762F6A2F11249F5750409AF0F1F088239F
:102230004AF0EE0FFF1FBB1F661F771F881F9150CC
:102240005040A9F79E3F510580F00C947E100C94ED
:10225000C9105F3FE4F3983ED4F386957795679570
:10226000B795F795E7959F5FC1F7FE2B880F911DF6
:102270009695879597F90895EE0FFF1F0590F491B5
:10228000E02D0994EF920F931F93CF93DF93E80112
:1022900034E047FD34E1042E000C550B57FF03C01A
:1022A000519541955109E32E022F242FAE010E9432
:1022B0006011CE01DF91CF911F910F91EF900895A2
:1022C000A9E0B0E0E6E6F1E10C94CF136A01F22E4A
:1022D000B02E102FFBE3AF2EA01608F41BE31F5FF8
:1022E000012F27E0AE014F5F5F4F0E94BF12BC017C
:1022F0008981982F9970913009F43FC09BE2E1FCED
:1023000004C09E2D9170E0FC3AC05E2D5071E82F04
:10231000E87083FF46C084E0911101C083E0EF2D97
:10232000E81B8F1508F0E0E0D6018E2F20E2552340
:1023300051F1992329F0D6019C93C60101966C01B5
:1023400096012D5F3F4FE2FE24C08EE4D6018C93B0
:1023500091E411969C93119712968C93D9018E2F2C
:1023600090E281111BC0E20FF32FF11D10828EEF5E
:102370009FEF2996ECE00C94EB139DE2C6CF90E220
:10238000C4CF2D9381508111FCCFCE0ED11CE0E043
:10239000D0CF8EE6D6018C9391E6DBCF9D93815012
:1023A000E0CF482F447082FF3DC084E0911101C00E
:1023B00083E08F1510F4EF2DE81BD6018E2F20E25D
:1023C000552309F1992329F0D6019C93C601019662
:1023D0006C0196012D5F3F4FE2FE1BC089E4D601E0
:1023E0008C938EE411968C93119786E412968C93BD
:1023F000D9018E2F90E2882309F4B5CF9D938150A7
:10240000FACF2D9381508111FCCFCE0ED11CE0E08C
:10241000D9CF89E6D6018C938EE611968C931197CD
:1024200086E6E4CF9B0177FF02C030E020E0A1E028
:10243000B0E0911102C0B0E0A0E0F9013196AE0F1A
:10244000BF1F8B2C912CBB2009F461C05401EFEF0E
:10245000AE1ABE0AAA0DBB1DFA161B0619F014F01F
:102460004F2D4A1B511188C0E3FC59C07601A42F9F
:10247000B0E2A1114FC0C40ED11C992309F45BC076
:1024800040E0D6011196F60190836D01552309F4C1
:1024900048C0012F060F9A81582F507184FF03C046
:1024A000913309F4015010160CF047C0093008F0C0
:1024B00008E0EEE2FE2E5B01A01AB10885019194BE
:1024C000819491082F3F320729F4D601FC92F6013E
:1024D00031966F016217730794F1021713077CF5A9
:1024E000DB01A21BB30BAA24A394B12CAC0EBD1E1E
:1024F000AA0DBB1D11968C9121503109D601119660
:1025000028153905F4F0F60180836D01DBCFB12C7D
:10251000A12CA0CFF701B1937F01A150AACF9111B7
:10252000B0CFD601942F50E302C05D93915091112A
:10253000FCCFC40ED11C40E0ACCF01E0BACF80E3A9
:10254000DBCF6217730731F4963388F4953311F4B7
:10255000552369F0F6018083FD01842F90E28111FB
:1025600008C0A40FB11D1C9290E080E002CF81E36F
:10257000F1CF91938150F3CF911183CF8ACF28303F
:1025800008F027E03327DA01990F311D87FD9160AC
:1025900000966105710539F432602E5F3D9330E39A
:1025A0002A95E1F708959F3F30F080387105610565
:1025B00009F03C5F3C5F3D93913008F08068911DCD
:1025C000DF93CF931F930F93FF92EF92192F987F72
:1025D0009695E92F96959695E90FFF27EE53FF4FB5
:1025E00099273327EE24FF24A701E70105900894DB
:1025F000079428F4360FE71EF81E491F511D660F79
:10260000771F881F991F0694A1F70590079428F457
:10261000E70EF81E491F561FC11D770F881F991F0F
:10262000661F0694A1F70590079428F4F80E491F39
:10263000561FC71FD11D880F991F661F771F06944D
:10264000A1F70590079420F4490F561FC71FD81F04
:10265000990F661F771F881F0694A9F7849110951C
:10266000177041F0D695C79557954795F794E7941D
:102670001A95C1F7E8E6F0E0689415901591359148
:102680006591959105907FE27395E118F10A430BEE
:10269000560BC90BD009C0F7E10CF11E431F561FA2
:1026A000C91FD01D7EF4703311F48A95E6CFE894EB
:1026B000015030F0080F0AF40027021708F4202F09
:1026C0002395022F7A3328F079E37D932A95E9F751
:1026D00010C07D932A9589F606949795679537954E
:1026E00017951794E118F10A430B560BC90BD00943
:1026F00098F023957E9173957A3308F070E37C937C
:102700002013B8F77E9170617D9330F0839571E36B
:102710007D9370E32A95E1F71124EF90FF900F91DC
:102720001F91CF91DF91992787FD90950895052EF0
:1027300097FB1EF400940E94AE1357FD07D00E9431
:10274000001407FC03D04EF40C94AE135095409542
:10275000309521953F4F4F4F5F4F0895909580954D
:10276000709561957F4F8F4F9F4F08950E9422145F
:10277000A59F900DB49F900DA49F800D911D1124D5
:102780000895B7FF0C94B6130E94B613821B930BE7
:1027900008952F923F924F925F926F927F928F9205
:1027A0009F92AF92BF92CF92DF92EF92FF920F93E0
:1027B0001F93CF93DF93CDB7DEB7CA1BDB0B0FB6EA
:1027C000F894DEBF0FBECDBF09942A8839884888A7
:1027D0005F846E847D848C849B84AA84B984C8843D
:1027E000DF80EE80FD800C811B81AA81B981CE0F34
:1027F000D11D0FB6F894DEBF0FBECDBFED01089519
:10280000A1E21A2EAA1BBB1BFD010DC0AA1FBB1FF4
:10281000EE1FFF1FA217B307E407F50720F0A21B66
:10282000B30BE40BF50B661F771F881F991F1A94D3
:1028300069F760957095809590959B01AC01BD01FD
:10284000CF010895A29FB001B39FC001A39F700D57
:10285000811D1124911DB29F700D811D1124911DA8
:102860000895991B79E004C0991F961708F0961BEC
:10287000881F7A95C9F7809508950F931F93CF937A
:10288000DF938230910510F482E090E0E0919F02A6
:10289000F091A00230E020E0B0E0A0E0309799F4A1
:1028A0002115310509F44AC0281B390B24303105A4
:1028B000D8F58A819B816115710589F1FB019383AC
:1028C0008283FE0111C0408151810281138148172A
:1028D0005907E0F04817590799F4109761F01296DC
:1028E0000C93129713961C933296CF01DF91CF91E0
:1028F0001F910F91089500939F021093A002F4CFAF
:102900002115310551F04217530738F0A901DB01B9
:102910009A01BD01DF01F801C1CFEF01F9CF90931A
:10292000A00280939F02CDCFFE01E20FF31F81939F
:1029300091932250310939832883D7CF20919D026A
:1029400030919E02232B41F420910201309103012A
:1029500030939E0220939D0220910001309101014D
:102960002115310541F42DB73EB740910401509136
:102970000501241B350BE0919D02F0919E02E217A8
:10298000F307A0F42E1B3F0B2817390778F0AC0192
:102990004E5F5F4F2417350748F04E0F5F1F50936F
:1029A0009E0240939D02819391939FCFF0E0E0E0DF
:1029B0009CCFCF93DF930097E9F0FC01329713820D
:1029C0001282A0919F02B091A002ED0130E020E0C0
:1029D0001097A1F420813181820F931F20919D02D5
:1029E00030919E022817390709F061C0F0939E02CA
:1029F000E0939D02DF91CF910895EA01CE17DF07A2
:102A0000E8F54A815B819E0141155105B1F7E90165
:102A1000FB83EA8349915991C40FD51FEC17FD0739
:102A200061F4808191810296840F951FE901998359
:102A30008883828193819B838A83F0E0E0E0129611
:102A40008D919C9113970097B9F52D913C91119719
:102A5000CD010296820F931F20919D0230919E021C
:102A60002817390739F6309751F51092A0021092C5
:102A70009F02B0939E02A0939D02BCCFD383C283DA
:102A800040815181840F951FC817D90761F44E5FAB
:102A90005F4F88819981480F591F518340838A81F4
:102AA0009B81938382832115310509F0B0CFF09388
:102AB000A002E0939F029ECFFD01DC01C0CF1382F4
:102AC0001282D7CFB0E0A0E0E8E6F5E10C94CB139A
:102AD0008C01009751F4CB010E943D148C01C80178
:102AE000CDB7DEB7E0E10C94E713FC01E60FF71F6A
:102AF0009C0122503109E217F30708F49DC0D90167
:102B0000CD91DC911197C617D70798F0C530D10544
:102B100030F3CE0104978617970708F3C61BD70B2F
:102B20002297C193D1936D937C93CF010E94D914C6
:102B3000D6CF5B01AC1ABD0A4C018C0E9D1EA09134
:102B40009F02B091A002512C412CF12CE12C109746
:102B500031F580919D0290919E028815990509F0AA
:102B60005CC04616570608F058C08091000190914D
:102B70000101009741F48DB79EB740910401509137
:102B80000501841B950BE817F90708F055C0F09371
:102B90009E02E0939D02F90171836083A0CF8D9125
:102BA0009C91119712966C90129713967C901397A4
:102BB000A815B90559F56C0142E0C40ED11CCA1420
:102BC000DB0420F1AC014A195B09DA011296159772
:102BD00080F06282738251834083D9016D937C932C
:102BE000E114F10471F0D7011396FC93EE93129760
:102BF00076CF22968C0F9D1FF90191838083F3017C
:102C0000EFCFF093A002E0939F0269CF48165906D8
:102C100008F42C017D01D3019ACFCB010E943D1411
:102C20007C01009749F0AE01B8010E941F16C8014F
:102C30000E94D914870153CF10E000E050CFFB0170
:102C4000DC0102C001900D9241505040D8F7089528
:102C5000FB01DC0101900D920020E1F70895F8944A
:022C6000FFCFA4
:102C62000000A10280008813000088130000000009
:102C7200000000E803000000000000000000000067
:102C82000200000300000400000D00000B00A00081
:102C92001E00000000002C2000417665726167650D
:102CA2003A20000A0000000000F8015801850145A1
:0A2CB20002B6019401A8010D0A000A
:00000001FF
