:100000000C9463000C948B000C948B000C948B006C
:100010000C948B000C948B000C948B000C948B0034
:100020000C948B000C948B000C948B000C94BC04EF
:100030000C948B000C948B000C948B000C948B0014
:100040000C94C5020C948B000C9435030C940F0394
:100050000C948B000C948B000C948B000C948B00F4
:100060000C948B000C948B000000000024002700EF
:100070002A0000000000250028002B0000000000DE
:1000800023002600290004040404040404040202DA
:100090000202020203030303030301020408102007
:1000A0004080010204081020010204081020000012
:1000B0000008000201000003040700000000000027
:1000C0000000AA06DD0711241FBECFEFD8E0DEBF77
:1000D000CDBF11E0A0E0B1E0E2E0F1E102C00590A7
:1000E0000D92A234B107D9F722E0A2E4B1E001C039
:1000F0001D92A736B207E1F710E0C3E6D0E004C0D6
:100100002197FE010E940A08C136D107C9F70E9453
:100110008B070C947F080C940000833081F028F446
:10012000813099F08230A9F008958730A9F08830A5
:10013000C9F08430B1F4809180008F7D03C080913C
:1001400080008F7780938000089584B58F7784BD79
:10015000089584B58F7DFBCF8091B0008F77809319
:10016000B00008958091B0008F7DF9CF3FB7F8942B
:1001700080910A0290910B02A0910C02B0910D02A5
:1001800026B5A89B05C02F3F19F00196A11DB11DF2
:100190003FBFBA2FA92F982F8827BC01CD01620F2E
:1001A000711D811D911D42E0660F771F881F991FE9
:1001B0004A95D1F70895AF92BF92CF92DF92EF9216
:1001C000FF920F931F93CF93DF936C017B018B0101
:1001D000040F151FEB015E01AE18BF08C017D10751
:1001E00059F06991D601ED91FC910190F081E02DDB
:1001F000C6010995892B79F7C501DF91CF911F9130
:100200000F91FF90EF90DF90CF90BF90AF90089547
:10021000FC01538D448D252F30E0842F90E0821B0C
:10022000930B541710F0CF96089501970895FC0191
:10023000918D828D981761F0A28DAE0FBF2FB11DE9
:100240005D968C91928D9F5F9F73928F90E0089541
:100250008FEF9FEF0895FC01918D828D981731F0FB
:10026000828DE80FF11D858D90E008958FEF9FEF4F
:100270000895FC01918D228D892F90E0805C9F4F25
:10028000821B91098F739927089582E491E00E945F
:10029000390121E0892B09F420E0822F089580E0C4
:1002A00090E0892B29F00E94450181110C940000F7
:1002B0000895FC01A48DA80FB92FB11DA35ABF4FFB
:1002C0002C91848D90E001968F739927848FA68955
:1002D000B7892C93A089B1898C91837080648C93A9
:1002E000938D848D981306C00288F389E02D808158
:1002F0008F7D80830895EF92FF920F931F93CF938A
:10030000DF93EC0181E0888F9B8D8C8D98131AC050
:10031000E889F989808185FF15C09FB7F894EE8937
:10032000FF896083E889F989808183708064808394
:100330009FBF81E090E0DF91CF911F910F91FF90DF
:10034000EF900895F62E0B8D10E00F5F1F4F0F7387
:100350001127E02E8C8D8E110CC00FB607FCFACF42
:10036000E889F989808185FFF5CFCE010E94590186
:10037000F1CFEB8DEC0FFD2FF11DE35AFF4FF08213
:100380009FB7F8940B8FEA89FB8980818062CFCF79
:10039000CF93DF93EC01888D8823B9F0AA89BB89BC
:1003A000E889F9898C9185FD03C0808186FD0DC0A7
:1003B0000FB607FCF7CF8C9185FFF2CF808185FFC8
:1003C000EDCFCE010E945901E9CFDF91CF91089581
:1003D000CF93DF93282F30E0F901E255FF4F84914E
:1003E000F901E656FF4FD491F901EA57FF4FC49146
:1003F000CC23A1F081110E948D00EC2FF0E0EE0FD4
:10040000FF1FE458FF4FA591B491EC91ED2381E0DB
:1004100090E009F480E0DF91CF91089580E090E0D2
:10042000FACF1F93CF93DF93282F30E0F901E255E5
:10043000FF4F8491F901E656FF4FD491F901EA5735
:10044000FF4FC491CC23A9F0162F81110E948D007B
:10045000EC2FF0E0EE0FFF1FEE58FF4FA591B49187
:100460008FB7F894EC91111108C0D095DE23DC937E
:100470008FBFDF91CF911F910895DE2BF8CFCF93DF
:10048000DF9390E0FC01E656FF4F24918A579F4F7F
:10049000FC0184918823C9F090E0880F991FFC012A
:1004A000E859FF4FA591B491FC01EE58FF4FC5915B
:1004B000D49161110DC09FB7F8948C91209582233F
:1004C0008C938881282328839FBFDF91CF91089543
:1004D000623051F49FB7F8943C91822F809583232A
:1004E0008C93E8812E2BEFCF8FB7F894EC912E2BC5
:1004F0002C938FBFEACF8230910538F0880F991F77
:10050000880F991F05970197F1F708958F929F9291
:10051000AF92BF92CF92DF92EF92FF926B017C017C
:100520000E94B6004B015C01C114D104E104F10446
:10053000B9F00E94B600681979098A099B09683EDA
:1005400073408105910580F321E0C21AD108E108CA
:10055000F10888EE880E83E0981EA11CB11CE4CF40
:10056000FF90EF90DF90CF90BF90AF909F908F90D3
:1005700008952FB7F8946091060270910702809158
:100580000802909109022FBF08951F920F920FB693
:100590000F9211242F933F938F939F93AF93BF9309
:1005A0008091060290910702A0910802B091090281
:1005B0003091050223E0230F2D3758F50196A11D38
:1005C000B11D209305028093060290930702A09329
:1005D0000802B093090280910A0290910B02A09147
:1005E0000C02B0910D020196A11DB11D80930A026B
:1005F00090930B02A0930C02B0930D02BF91AF91A8
:100600009F918F913F912F910F900FBE0F901F9050
:10061000189526E8230F0296A11DB11DD2CF1F9277
:100620000F920FB60F9211242F933F934F935F9326
:100630006F937F938F939F93AF93BF93EF93FF93AA
:1006400082E491E00E945901FF91EF91BF91AF9137
:100650009F918F917F916F915F914F913F912F91DA
:100660000F900FBE0F901F9018951F920F920FB60C
:100670000F9211242F938F939F93EF93FF93E09109
:100680005201F09153018081E0915801F09159019C
:1006900082FD1BC0908180915B018F5F8F732091E1
:1006A0005C01821741F0E0915B01F0E0EE5BFE4FF0
:1006B000958F80935B01FF91EF919F918F912F9187
:1006C0000F900FBE0F901F9018958081F4CFCF929E
:1006D000DF92EF92FF921F93CF93DF93EC016A01B9
:1006E0007B01122FE889F98982E08083C11481EEB1
:1006F000D806E104F104A1F060E079E08DE390E038
:10070000A70196010E94420821503109410951096F
:100710005695479537952795211580E1380798F02C
:10072000E889F989108260E874E88EE190E0A70119
:1007300096010E94420821503109410951095695FC
:10074000479537952795EC85FD853083EE85FF85A8
:100750002083188EEC89FD891083EA89FB898081CA
:1007600080618083EA89FB89808188608083EA894F
:10077000FB89808180688083EA89FB8980818F7D05
:100780008083DF91CF911F91FF90EF90DF90CF900A
:100790000895CF92DF92EF92FF92CF93DF93EC0117
:1007A000603282E07807CCF5653B710514F064EBAC
:1007B00070E0898128E830E0281B310987FD3395F6
:1007C000220F331F220F331F6901330FEE08FF087A
:1007D0008A8128E532E0281B310987FD3395220FF5
:1007E000331F220F331F032E000C440B550B2C1903
:1007F0003D094E095F09DB0177FF02C0B0E0A0E0D0
:100800000E943A0824EB30E040E050E00E941008DB
:10081000C20ED31EE41EF51EB601E881EC3070F561
:10082000298188E890E0821B910927FD9395880F24
:10083000991F880F991F681779077CF02A8188E52E
:1008400092E0821B910927FD9395880F991F880FCD
:10085000991F681779070CF4CB010297880F991F2D
:100860004FB7F8942E2F30E0F901EE0FFF1FE20F83
:10087000F31FEF51FE4F928381834FBFDF91CF91E2
:10088000FF90EF90DF90CF9008951F93CF93DF9369
:10089000EC01162F88818C3008F04EC061E0812F6A
:1008A0000E943F028881282F30E0F901EE0FFF1FE0
:1008B000E20FF31FEF51FE4F1F736081607C612BCD
:1008C000608319821A822CE0622F0E947308829F33
:1008D000B001112430E020E0AB01420F531FFA01B8
:1008E000EE0FFF1FE40FF51FEF51FE4F908196FDB5
:1008F00016C02F5F3F4F2C30310571F781110FC0AB
:100900001092800082E08093810010928500109206
:100910008400B19A80916F00826080936F00E881BB
:100920008E2F90E0FC01EE0FFF1FE80FF91FEF5133
:10093000FE4F8081806480838881DF91CF911F91F9
:100940000895FC019091E0019C3098F481E0890FBA
:100950008093E0019083892F90E0FC01EE0FFF1F50
:10096000E80FF91FEF51FE4F88EB9BE092838183E4
:1009700008958FEF808308951F920F920FB60F9204
:1009800011242F933F934F935F936F937F938F9394
:100990009F93AF93BF93CF93DF93EF93FF93809198
:1009A000DF01C091E001D0E087FF24C010928500F4
:1009B000109284008091DF018F5F8093DF0180912E
:1009C000DF01082E000C990B8C179D0724F48091F1
:1009D000DF018C30C4F180918400909185000496F1
:1009E00080349C4908F47AC08091840090918500FD
:1009F000049676C08091DF01082E000C990B8C17AD
:100A00009D07C4F6E091DF018E2FEE0F990BFC01DC
:100A1000EE0FFF1FE80FF91FEF51FE4F808186FF99
:100A2000C9CFE091DF018E2FEE0F990BFC01EE0F85
:100A3000FF1FE80FF91FEF51FE4F808160E08F73B9
:100A40000E941102B7CF2091840030918500E0917F
:100A5000DF018E2FEE0F990BFC01EE0FFF1FE80F49
:100A6000F91FEF51FE4F81819281820F931F909366
:100A7000890080938800E091DF018E2FEE0F990BA3
:100A8000FC01EE0FFF1FE80FF91FEF51FE4F8081B1
:100A900086FF11C0E091DF018E2FEE0F990BFC0154
:100AA000EE0FFF1FE80FF91FEF51FE4F808161E04D
:100AB0008F730E941102FF91EF91DF91CF91BF914F
:100AC000AF919F918F917F916F915F914F913F91E6
:100AD0002F910F900FBE0F901F90189580E49CE906
:100AE00090938900809388008FEF8093DF01E3CF9C
:100AF000CF93DF93CDB7DEB72B970FB6F894DEBF59
:100B00000FBECDBF98878F8369874A872B878F81D8
:100B100098852985FC0125838F8198852A85FC018C
:100B200026838985882F90E086569F4F9A838983F4
:100B300089819A81FC0184918B838F8198852B8197
:100B4000FC0127838985882F90E08A579F4F9D83DA
:100B50008C838C819D81FC0184918E838F8198850B
:100B60002E81FC0120872F81388580E89EE3A0E05C
:100B7000B0E0F90185879687A787B08B00002B9698
:100B80000FB6F894DEBF0FBECDBFDF91CF910895B1
:100B9000CF93DF9300D0CDB7DEB79A838983898165
:100BA0009A810E94D90500000F900F90DF91CF919C
:100BB0000895CF93DF9300D0CDB7DEB79A838983B2
:100BC0000E94B902DC01CB0129813A81F9018087B9
:100BD0009187A287B38789819A81FC0114860000DE
:100BE0000F900F90DF91CF910895CF93DF9300D0B6
:100BF00000D000D0CDB7DEB79A8389834B835C8366
:100C00006D837E838B819C81AD81BE81E981FA8178
:100C100026E0AC01BD01CF010E94670300002696CB
:100C20000FB6F894DEBF0FBECDBFDF91CF91089510
:100C3000CF93DF93CDB7DEB740E052EC61E070E0D8
:100C400082E491E00E94F5058AE191E00E94B706F6
:100C50008DE191E00E94B70680E291E00E94B70624
:100C600083E291E00E94760786E291E00E941207FB
:100C70008DE091E00E94C80583E291E090931A0212
:100C8000809319028DE191E09093180280931702EE
:100C90008DE091E0909316028093150280E091E040
:100CA0000E94C80586E291E090931402809313029B
:100CB00080E291E0909312028093110280E091E033
:100CC0009093100280930F020000DF91CF9108955E
:100CD000CF93DF93CDB7DEB70000DF91CF910895BA
:100CE000CF93DF9300D000D0CDB7DEB79A8389834E
:100CF0007C836B8389819A81019721F58B819C810B
:100D0000019601F58CE291E00E94A10426E04BE0FF
:100D10006EE08BE192E00E94780526E04BE06FE008
:100D20008EE292E00E94780526E04BE060E181E4EB
:100D300092E00E94780526E04BE061E184E592E0D4
:100D40000E94780500000F900F900F900F90DF9198
:100D5000CF910895CF93DF93CDB7DEB76FEF7FEFDD
:100D600081E090E00E947006DF91CF910895CF93CB
:100D7000DF9300D0CDB7DEB79A83898389819A81CA
:100D8000FC018081918161E00E943F0289819A810A
:100D90000E94D00600000F900F90DF91CF91089530
:100DA000CF93DF9300D0CDB7DEB79A838983898153
:100DB0009A81FC01928181E08927882349F4898105
:100DC0009A81FC01128289819A810E94EE0601C0FB
:100DD00000000F900F90DF91CF910895CF93DF9394
:100DE00000D0CDB7DEB79A83898389819A81FC01CF
:100DF0008281882349F089819A81FC0180819181D7
:100E000061E00E94110208C089819A81FC01808101
:100E1000918160E00E94110200000F900F90DF911D
:100E2000CF910895CF93DF9300D0CDB7DEB79A83EB
:100E3000898389819A819C012A5F3F4F89819A81A8
:100E4000FC0180819181BC01C9010E944504898116
:100E50009A810E94310700000F900F90DF91CF918F
:100E60000895CF93DF9300D0CDB7DEB79A838983FF
:100E700089819A81FC01118689819A810E944607A5
:100E800000000F900F90DF91CF910895CF93DF93E3
:100E900000D0CDB7DEB79A83898389819A81FC011E
:100EA0008185882379F089819A819C012A5F3F4F4F
:100EB00089819A81FC0182819381BC01C9010E94D0
:100EC000C9030EC089819A819C012A5F3F4F8981A5
:100ED0009A81FC0184819581BC01C9010E94C903EA
:100EE00000000F900F90DF91CF910895CF93DF9383
:100EF00000D0CDB7DEB79A83898389819A81FC01BE
:100F00008081918160E00E943F0200000F900F906D
:100F1000DF91CF910895789484B5826084BD84B5C3
:100F2000816084BD85B5826085BD85B5816085BDE4
:100F300080916E00816080936E001092810080919C
:100F40008100826080938100809181008160809324
:100F50008100809180008160809380008091B10049
:100F600084608093B1008091B00081608093B00074
:100F700080917A00846080937A0080917A00826008
:100F800080937A0080917A00816080937A008091CA
:100F90007A00806880937A001092C1000E9418063F
:100FA000C0E0D0E00E9468062097E1F30E9445016E
:100FB0008823C1F30E940000F5CFE2E4F1E0138240
:100FC000128288EE93E0A0E0B0E084839583A6834C
:100FD000B78384E391E09183808385EC90E09587EB
:100FE000848784EC90E09787868780EC90E0918BF3
:100FF000808B81EC90E0938B828B82EC90E0958BE0
:10100000848B86EC90E0978B868B118E128E138EDC
:10101000148E0895EE0FFF1F0590F491E02D0994B2
:10102000052E97FB1EF400940E94270857FD07D059
:101030000E94420807FC03D04EF40C9427085095F8
:101040004095309521953F4F4F4F5F4F08959095B4
:101050008095709561957F4F8F4F9F4F08950E94A7
:101060006408A59F900DB49F900DA49F800D911DC5
:1010700011240895B7FF0C942F080E942F08821B9B
:10108000930B0895A1E21A2EAA1BBB1BFD010DC0F4
:10109000AA1FBB1FEE1FFF1FA217B307E407F50728
:1010A00020F0A21BB30BE40BF50B661F771F881F04
:1010B000991F1A9469F760957095809590959B019A
:1010C000AC01BD01CF010895A29FB001B39FC00143
:1010D000A39F700D811D1124911DB29F700D811D64
:1010E0001124911D0895991B79E004C0991F96174A
:1010F00008F0961B881F7A95C9F780950895F89493
:02110000FFCF1F
:1011020088130000E80300000000000000E803006C
:1011120000000000000000000000020000030000C8
:101122000400000D00000B00A0001E0000000000E3
:10113200000000007B01DB000801C8013901170132
:021142002B017F
:00000001FF
